{
  "contractName": "optimized_healthCare",
  "abi": [
    {
      "inputs": [],
      "payable": false,
      "stateMutability": "nonpayable",
      "type": "constructor"
    },
    {
      "anonymous": false,
      "inputs": [
        {
          "indexed": false,
          "internalType": "address",
          "name": "_doctor",
          "type": "address"
        },
        {
          "indexed": false,
          "internalType": "string",
          "name": "message",
          "type": "string"
        }
      ],
      "name": "doctorSignUp",
      "type": "event"
    },
    {
      "anonymous": false,
      "inputs": [
        {
          "indexed": false,
          "internalType": "address",
          "name": "patient_address",
          "type": "address"
        },
        {
          "indexed": false,
          "internalType": "string",
          "name": "message",
          "type": "string"
        },
        {
          "indexed": false,
          "internalType": "string",
          "name": "_doctor",
          "type": "string"
        },
        {
          "indexed": false,
          "internalType": "address",
          "name": "doctor_address",
          "type": "address"
        }
      ],
      "name": "grantDoctorAccess",
      "type": "event"
    },
    {
      "anonymous": false,
      "inputs": [
        {
          "indexed": false,
          "internalType": "address",
          "name": "_patient",
          "type": "address"
        },
        {
          "indexed": false,
          "internalType": "string",
          "name": "message",
          "type": "string"
        }
      ],
      "name": "patientSignUp",
      "type": "event"
    },
    {
      "anonymous": false,
      "inputs": [
        {
          "indexed": false,
          "internalType": "address",
          "name": "patient_address",
          "type": "address"
        },
        {
          "indexed": false,
          "internalType": "string",
          "name": "message",
          "type": "string"
        },
        {
          "indexed": false,
          "internalType": "string",
          "name": "_doctor",
          "type": "string"
        },
        {
          "indexed": false,
          "internalType": "address",
          "name": "doctor_address",
          "type": "address"
        }
      ],
      "name": "revokeDoctorAccess",
      "type": "event"
    },
    {
      "constant": false,
      "inputs": [
        {
          "internalType": "address",
          "name": "_id",
          "type": "address"
        },
        {
          "internalType": "string",
          "name": "_name",
          "type": "string"
        },
        {
          "internalType": "string",
          "name": "_location",
          "type": "string"
        }
      ],
      "name": "hospitalSignUp",
      "outputs": [],
      "payable": false,
      "stateMutability": "nonpayable",
      "type": "function"
    },
    {
      "constant": false,
      "inputs": [
        {
          "internalType": "string",
          "name": "_name",
          "type": "string"
        },
        {
          "internalType": "string",
          "name": "_contact",
          "type": "string"
        },
        {
          "internalType": "string",
          "name": "_gender",
          "type": "string"
        }
      ],
      "name": "signupPatient",
      "outputs": [],
      "payable": false,
      "stateMutability": "nonpayable",
      "type": "function"
    },
    {
      "constant": false,
      "inputs": [
        {
          "internalType": "address",
          "name": "_id",
          "type": "address"
        },
        {
          "internalType": "string",
          "name": "_name",
          "type": "string"
        },
        {
          "internalType": "string",
          "name": "_contact",
          "type": "string"
        },
        {
          "internalType": "string",
          "name": "_specialization",
          "type": "string"
        }
      ],
      "name": "signupDoctor",
      "outputs": [],
      "payable": false,
      "stateMutability": "nonpayable",
      "type": "function"
    },
    {
      "constant": false,
      "inputs": [
        {
          "internalType": "address",
          "name": "doctor_id",
          "type": "address"
        }
      ],
      "name": "grantAccessToDoctor",
      "outputs": [],
      "payable": false,
      "stateMutability": "nonpayable",
      "type": "function"
    },
    {
      "constant": false,
      "inputs": [
        {
          "internalType": "address",
          "name": "doctor_id",
          "type": "address"
        }
      ],
      "name": "revokeAccessFromDoctor",
      "outputs": [],
      "payable": false,
      "stateMutability": "nonpayable",
      "type": "function"
    },
    {
      "constant": false,
      "inputs": [
        {
          "internalType": "string",
          "name": "_file_name",
          "type": "string"
        },
        {
          "internalType": "string",
          "name": "_file_type",
          "type": "string"
        },
        {
          "internalType": "string",
          "name": "_file_hash",
          "type": "string"
        }
      ],
      "name": "addUserFiles",
      "outputs": [],
      "payable": false,
      "stateMutability": "nonpayable",
      "type": "function"
    },
    {
      "constant": true,
      "inputs": [
        {
          "internalType": "address",
          "name": "sender",
          "type": "address"
        }
      ],
      "name": "getUserFiles",
      "outputs": [
        {
          "components": [
            {
              "internalType": "string",
              "name": "file_name",
              "type": "string"
            },
            {
              "internalType": "string",
              "name": "file_type",
              "type": "string"
            },
            {
              "internalType": "string",
              "name": "file_hash",
              "type": "string"
            }
          ],
          "internalType": "struct optimized_healthCare.files[]",
          "name": "",
          "type": "tuple[]"
        }
      ],
      "payable": false,
      "stateMutability": "view",
      "type": "function"
    },
    {
      "constant": true,
      "inputs": [],
      "name": "getPatientInfo",
      "outputs": [
        {
          "internalType": "string",
          "name": "",
          "type": "string"
        },
        {
          "internalType": "address",
          "name": "",
          "type": "address"
        },
        {
          "internalType": "string",
          "name": "",
          "type": "string"
        },
        {
          "internalType": "bytes32[]",
          "name": "",
          "type": "bytes32[]"
        },
        {
          "internalType": "address[]",
          "name": "",
          "type": "address[]"
        },
        {
          "internalType": "string",
          "name": "",
          "type": "string"
        },
        {
          "internalType": "string",
          "name": "",
          "type": "string"
        }
      ],
      "payable": false,
      "stateMutability": "view",
      "type": "function"
    },
    {
      "constant": true,
      "inputs": [],
      "name": "getDoctorInfo",
      "outputs": [
        {
          "internalType": "string",
          "name": "",
          "type": "string"
        },
        {
          "internalType": "address",
          "name": "",
          "type": "address"
        },
        {
          "internalType": "address[]",
          "name": "",
          "type": "address[]"
        },
        {
          "internalType": "string",
          "name": "",
          "type": "string"
        },
        {
          "internalType": "string",
          "name": "",
          "type": "string"
        }
      ],
      "payable": false,
      "stateMutability": "view",
      "type": "function"
    },
    {
      "constant": true,
      "inputs": [
        {
          "internalType": "uint64",
          "name": "_adhaar_number",
          "type": "uint64"
        }
      ],
      "name": "checkDoctorInfo",
      "outputs": [
        {
          "internalType": "bool",
          "name": "",
          "type": "bool"
        },
        {
          "internalType": "address",
          "name": "",
          "type": "address"
        }
      ],
      "payable": false,
      "stateMutability": "view",
      "type": "function"
    },
    {
      "constant": true,
      "inputs": [
        {
          "internalType": "uint64",
          "name": "_adhaar_number",
          "type": "uint64"
        }
      ],
      "name": "checkPatientInfo",
      "outputs": [
        {
          "internalType": "bool",
          "name": "",
          "type": "bool"
        },
        {
          "internalType": "address",
          "name": "",
          "type": "address"
        }
      ],
      "payable": false,
      "stateMutability": "view",
      "type": "function"
    },
    {
      "constant": true,
      "inputs": [
        {
          "internalType": "address",
          "name": "pat",
          "type": "address"
        }
      ],
      "name": "getPatientInfoForDoctor",
      "outputs": [
        {
          "internalType": "string",
          "name": "",
          "type": "string"
        },
        {
          "internalType": "string",
          "name": "",
          "type": "string"
        },
        {
          "internalType": "address",
          "name": "",
          "type": "address"
        },
        {
          "components": [
            {
              "internalType": "string",
              "name": "file_name",
              "type": "string"
            },
            {
              "internalType": "string",
              "name": "file_type",
              "type": "string"
            },
            {
              "internalType": "string",
              "name": "file_hash",
              "type": "string"
            }
          ],
          "internalType": "struct optimized_healthCare.files[]",
          "name": "",
          "type": "tuple[]"
        }
      ],
      "payable": false,
      "stateMutability": "view",
      "type": "function"
    },
    {
      "constant": true,
      "inputs": [],
      "name": "getHospitalInfo",
      "outputs": [
        {
          "internalType": "address",
          "name": "",
          "type": "address"
        },
        {
          "internalType": "string",
          "name": "",
          "type": "string"
        },
        {
          "internalType": "string",
          "name": "",
          "type": "string"
        }
      ],
      "payable": false,
      "stateMutability": "view",
      "type": "function"
    },
    {
      "constant": true,
      "inputs": [],
      "name": "getOwnerInfo",
      "outputs": [
        {
          "internalType": "address",
          "name": "",
          "type": "address"
        }
      ],
      "payable": false,
      "stateMutability": "view",
      "type": "function"
    },
    {
      "constant": false,
      "inputs": [
        {
          "internalType": "address",
          "name": "_user",
          "type": "address"
        },
        {
          "internalType": "address",
          "name": "_patient",
          "type": "address"
        }
      ],
      "name": "hospitalGrantAccess",
      "outputs": [],
      "payable": false,
      "stateMutability": "nonpayable",
      "type": "function"
    },
    {
      "constant": false,
      "inputs": [
        {
          "internalType": "address",
          "name": "_id",
          "type": "address"
        },
        {
          "internalType": "string",
          "name": "_name",
          "type": "string"
        },
        {
          "internalType": "string",
          "name": "_location",
          "type": "string"
        }
      ],
      "name": "addHospital",
      "outputs": [],
      "payable": false,
      "stateMutability": "nonpayable",
      "type": "function"
    },
    {
      "constant": false,
      "inputs": [
        {
          "internalType": "address",
          "name": "_id",
          "type": "address"
        },
        {
          "internalType": "string",
          "name": "_name",
          "type": "string"
        }
      ],
      "name": "regInsuranceComp",
      "outputs": [],
      "payable": false,
      "stateMutability": "nonpayable",
      "type": "function"
    },
    {
      "constant": true,
      "inputs": [],
      "name": "getInsuranceCompInfo",
      "outputs": [
        {
          "internalType": "address",
          "name": "",
          "type": "address"
        },
        {
          "internalType": "string",
          "name": "",
          "type": "string"
        },
        {
          "internalType": "address[]",
          "name": "",
          "type": "address[]"
        }
      ],
      "payable": false,
      "stateMutability": "view",
      "type": "function"
    },
    {
      "constant": false,
      "inputs": [
        {
          "internalType": "address",
          "name": "_insuranceComp",
          "type": "address"
        },
        {
          "internalType": "address",
          "name": "_pat",
          "type": "address"
        }
      ],
      "name": "addPatientToInsuranceComp",
      "outputs": [],
      "payable": false,
      "stateMutability": "nonpayable",
      "type": "function"
    },
    {
      "constant": false,
      "inputs": [
        {
          "internalType": "address",
          "name": "_doc",
          "type": "address"
        },
        {
          "internalType": "string",
          "name": "_name",
          "type": "string"
        },
        {
          "internalType": "string",
          "name": "_DOB",
          "type": "string"
        },
        {
          "internalType": "uint24",
          "name": "_pincode",
          "type": "uint24"
        },
        {
          "internalType": "uint64",
          "name": "_adhaar_number",
          "type": "uint64"
        }
      ],
      "name": "addDoctorAdhaarInfo",
      "outputs": [],
      "payable": false,
      "stateMutability": "nonpayable",
      "type": "function"
    },
    {
      "constant": false,
      "inputs": [
        {
          "internalType": "address",
          "name": "_pat",
          "type": "address"
        },
        {
          "internalType": "string",
          "name": "_name",
          "type": "string"
        },
        {
          "internalType": "string",
          "name": "_DOB",
          "type": "string"
        },
        {
          "internalType": "uint24",
          "name": "_pincode",
          "type": "uint24"
        },
        {
          "internalType": "uint64",
          "name": "_adhaar_number",
          "type": "uint64"
        }
      ],
      "name": "addPatientAdhaarInfo",
      "outputs": [],
      "payable": false,
      "stateMutability": "nonpayable",
      "type": "function"
    }
  ],
  "bytecode": "0x608060405234801561001057600080fd5b5060008054600160a060020a031916730aa5f9f476fcd111d6d656051306ba678c1cb5de1790556158e480620000476000396000f3fe608060405234801561001057600080fd5b5060043610610194576000357c010000000000000000000000000000000000000000000000000000000090048063828566fc116100f5578063b380f5c6116100a9578063c981893011610083578063c98189301461032b578063facf83231461033e578063fe59cc1a1461035357610194565b8063b380f5c6146102e8578063b609af2614610301578063c4fa7adb1461031457610194565b806397f7f06d116100da57806397f7f06d146102a1578063ab9cff18146102b4578063ae2ed42f146102c757610194565b8063828566fc1461027b578063859287b11461028e57610194565b8063326df6641161014c5780633b17c592116101315780633b17c5921461023e578063405b8af014610255578063629e559d1461026857610194565b8063326df664146102105780633b0e67ec1461022b57610194565b80631fd4be9b1161017d5780631fd4be9b146101d75780632ae48e40146101ea5780632cecb523146101fd57610194565b80631c8e251c146101995780631fc37922146101ae575b600080fd5b6101ac6101a7366004614e6f565b610376565b005b6101c16101bc366004614e6f565b610ad2565b6040516101ce919061560d565b60405180910390f35b6101ac6101e536600461503d565b610d0a565b6101ac6101f83660046150e2565b610fcc565b6101ac61020b366004614e95565b611063565b610218611503565b6040516101ce979695949392919061569e565b6101ac610239366004614f17565b611c67565b610246611ea8565b6040516101ce93929190615586565b6101ac610263366004614f94565b611ff4565b6101ac610276366004614e6f565b6123d2565b6101ac610289366004614f17565b612a8e565b6101ac61029c366004614ecf565b612c1b565b6101ac6102af366004614e95565b612e0d565b6101ac6102c23660046150e2565b612eb0565b6102da6102d536600461511a565b61329c565b6040516101ce92919061561e565b6102f06137db565b6040516101ce959493929190615639565b6101ac61030f36600461503d565b613d39565b61031c613fb5565b6040516101ce939291906155ba565b6102da61033936600461511a565b614127565b610346614576565b6040516101ce91906154f8565b610366610361366004614e6f565b61459f565b6040516101ce949392919061572d565b3361037f614b71565b600160a060020a03821660009081526002602081815260409283902083518154610120601f60001960018416156101009081029190910190931696909604958601859004909402820184019095529384018381529092849284919084018282801561042b5780601f106104005761010080835404028352916020019161042b565b820191906000526020600020905b81548152906001019060200180831161040e57829003601f168201915b50505050508152602001600182018054600181600116156101000203166002900480601f0160208091040260200160405190810160405280929190818152602001828054600181600116156101000203166002900480156104cd5780601f106104a2576101008083540402835291602001916104cd565b820191906000526020600020905b8154815290600101906020018083116104b057829003601f168201915b505050918352505060028281015467ffffffffffffffff811660208085019190915268010000000000000000909104600160a060020a031660408085019190915260038501805482516101006001831615026000190190911694909404601f8101849004840285018401909252818452606090940193918301828280156105955780601f1061056a57610100808354040283529160200191610595565b820191906000526020600020905b81548152906001019060200180831161057857829003601f168201915b505050918352505060048201805460408051602060026001851615610100026000190190941693909304601f81018490048402820184019092528181529382019392918301828280156106295780601f106105fe57610100808354040283529160200191610629565b820191906000526020600020905b81548152906001019060200180831161060c57829003601f168201915b505050505081526020016005820180548060200260200160405190810160405280929190818152602001828054801561068157602002820191906000526020600020905b81548152602001906001019080831161066d575b50505050508152602001600682018054806020026020016040519081016040528092919081815260200182805480156106e357602002820191906000526020600020905b8154600160a060020a031681526001909101906020018083116106c5575b50505050508152505090506000600160a060020a03168160600151600160a060020a03161161071157600080fd5b8261071a614bc9565b600160a060020a0382166000908152600160208181526040928390208351815460029481161561010002600019011693909304601f8101839004909202830160e090810190945260c0830182815292939092849290918491908401828280156107c45780601f10610799576101008083540402835291602001916107c4565b820191906000526020600020905b8154815290600101906020018083116107a757829003601f168201915b5050509183525050600182810154600160a060020a0381166020808501919091527401000000000000000000000000000000000000000090910467ffffffffffffffff166040808501919091526002808601805483516101009682161596909602600019011691909104601f8101849004840285018401909252818452606090940193918301828280156108995780601f1061086e57610100808354040283529160200191610899565b820191906000526020600020905b81548152906001019060200180831161087c57829003601f168201915b505050918352505060038201805460408051602060026001851615610100026000190190941693909304601f810184900484028201840190925281815293820193929183018282801561092d5780601f106109025761010080835404028352916020019161092d565b820191906000526020600020905b81548152906001019060200180831161091057829003601f168201915b505050505081526020016004820180548060200260200160405190810160405280929190818152602001828054801561098f57602002820191906000526020600020905b8154600160a060020a03168152600190910190602001808311610971575b50505050508152505090506000600160a060020a03168160200151600160a060020a0316116109bd57600080fd5b336000818152600260209081526040808320600160a060020a038a16808552600180855283862096865260038552838620918652935292205491929161ffff1610610a0757600080fd5b600682018054600180820180845560009384526020808520909301805473ffffffffffffffffffffffffffffffffffffffff19908116600160a060020a038e1690811790925533808752600386526040808820938852928652828720805461ffff191661ffff8616179055600488018054958601815587529490952090920180549094168317909355517fe239c4e608cb32aaf8ef7214f811e28ea27c91cad9f719be74579c18fc2e983191610ac09185908c90615525565b60405180910390a15050505050505050565b600160a060020a0381166000908152600560209081526040808320805482518185028101850190935280835260609492939192909184015b82821015610cff5760008481526020908190206040805160038602909201805460026001821615610100026000190190911604601f8101859004909402830160809081019092526060830184815292939092849290918491840182828015610bb35780601f10610b8857610100808354040283529160200191610bb3565b820191906000526020600020905b815481529060010190602001808311610b9657829003601f168201915b50505050508152602001600182018054600181600116156101000203166002900480601f016020809104026020016040519081016040528092919081815260200182805460018160011615610100020316600290048015610c555780601f10610c2a57610100808354040283529160200191610c55565b820191906000526020600020905b815481529060010190602001808311610c3857829003601f168201915b5050509183525050600282810180546040805160206001841615610100026000190190931694909404601f81018390048302850183019091528084529381019390830182828015610ce75780601f10610cbc57610100808354040283529160200191610ce7565b820191906000526020600020905b815481529060010190602001808311610cca57829003601f168201915b50505050508152505081526020019060010190610b0a565b505050509050919050565b610d12614c12565b600160a060020a03868116600090815260096020908152604091829020825160a081018452815494851681527401000000000000000000000000000000000000000090940467ffffffffffffffff1684830152600180820180548551600261010094831615949094026000190190911692909204601f81018590048502830185018652808352929486019391929091830182828015610df25780601f10610dc757610100808354040283529160200191610df2565b820191906000526020600020905b815481529060010190602001808311610dd557829003601f168201915b5050509183525050600282810180546040805160206001841615610100026000190190931694909404601f81018390048302850183019091528084529381019390830182828015610e845780601f10610e5957610100808354040283529160200191610e84565b820191906000526020600020905b815481529060010190602001808311610e6757829003601f168201915b50505091835250506003919091015462ffffff1660209182015281015190915067ffffffffffffffff1615610eb857600080fd5b6040805160a081018252600160a060020a0388811680835267ffffffffffffffff86811660208086019182528587018c8152606087018c905262ffffff8b1660808801526000948552600982529690932085518154925173ffffffffffffffffffffffffffffffffffffffff199093169516949094177fffffffff0000000000000000ffffffffffffffffffffffffffffffffffffffff167401000000000000000000000000000000000000000091909216021782559251805192939192610f869260018501920190614c59565b5060608201518051610fa2916002840191602090910190614c59565b50608091909101516003909101805462ffffff191662ffffff909216919091179055505050505050565b336000908152600560209081526040808320815160608101835287815280840187905291820185905280546001810180835591855293839020825180519295939460039094029091019261102592849290910190614c59565b50602082810151805161103e9260018501920190614c59565b506040820151805161105a916002840191602090910190614c59565b50505050505050565b8061106c614b71565b600160a060020a03821660009081526002602081815260409283902083518154610120601f6000196001841615610100908102919091019093169690960495860185900490940282018401909552938401838152909284928491908401828280156111185780601f106110ed57610100808354040283529160200191611118565b820191906000526020600020905b8154815290600101906020018083116110fb57829003601f168201915b50505050508152602001600182018054600181600116156101000203166002900480601f0160208091040260200160405190810160405280929190818152602001828054600181600116156101000203166002900480156111ba5780601f1061118f576101008083540402835291602001916111ba565b820191906000526020600020905b81548152906001019060200180831161119d57829003601f168201915b505050918352505060028281015467ffffffffffffffff811660208085019190915268010000000000000000909104600160a060020a031660408085019190915260038501805482516101006001831615026000190190911694909404601f8101849004840285018401909252818452606090940193918301828280156112825780601f1061125757610100808354040283529160200191611282565b820191906000526020600020905b81548152906001019060200180831161126557829003601f168201915b505050918352505060048201805460408051602060026001851615610100026000190190941693909304601f81018490048402820184019092528181529382019392918301828280156113165780601f106112eb57610100808354040283529160200191611316565b820191906000526020600020905b8154815290600101906020018083116112f957829003601f168201915b505050505081526020016005820180548060200260200160405190810160405280929190818152602001828054801561136e57602002820191906000526020600020905b81548152602001906001019080831161135a575b50505050508152602001600682018054806020026020016040519081016040528092919081815260200182805480156113d057602002820191906000526020600020905b8154600160a060020a031681526001909101906020018083116113b2575b50505050508152505090506000600160a060020a03168160600151600160a060020a0316116113fe57600080fd5b600160a060020a03808516600090815260016020818152604080842088861685526002909252909220908201549192909116156114fb57600160a060020a038086166000908152600360209081526040808320938a1683529290522054600161ffff9091161061146d57600080fd5b6006810180546001818101808455600093845260208085209093018054600160a060020a03808d1673ffffffffffffffffffffffffffffffffffffffff1992831681179093558b16808752600386526040808820938852928652918620805461ffff90941661ffff199094169390931790925560048701805493840181558552929093200180549092161790555b505050505050565b60606000606080606080606033611518614b71565b600160a060020a03821660009081526002602081815260409283902083518154610120601f6000196001841615610100908102919091019093169690960495860185900490940282018401909552938401838152909284928491908401828280156115c45780601f10611599576101008083540402835291602001916115c4565b820191906000526020600020905b8154815290600101906020018083116115a757829003601f168201915b50505050508152602001600182018054600181600116156101000203166002900480601f0160208091040260200160405190810160405280929190818152602001828054600181600116156101000203166002900480156116665780601f1061163b57610100808354040283529160200191611666565b820191906000526020600020905b81548152906001019060200180831161164957829003601f168201915b505050918352505060028281015467ffffffffffffffff811660208085019190915268010000000000000000909104600160a060020a031660408085019190915260038501805482516101006001831615026000190190911694909404601f81018490048402850184019092528184526060909401939183018282801561172e5780601f106117035761010080835404028352916020019161172e565b820191906000526020600020905b81548152906001019060200180831161171157829003601f168201915b505050918352505060048201805460408051602060026001851615610100026000190190941693909304601f81018490048402820184019092528181529382019392918301828280156117c25780601f10611797576101008083540402835291602001916117c2565b820191906000526020600020905b8154815290600101906020018083116117a557829003601f168201915b505050505081526020016005820180548060200260200160405190810160405280929190818152602001828054801561181a57602002820191906000526020600020905b815481526020019060010190808311611806575b505050505081526020016006820180548060200260200160405190810160405280929190818152602001828054801561187c57602002820191906000526020600020905b8154600160a060020a0316815260019091019060200180831161185e575b50505050508152505090506000600160a060020a03168160600151600160a060020a0316116118aa57600080fd5b6118b2614b71565b3360009081526002602081815260409283902083518154610120601f6000196001841615610100908102919091019093169690960495860185900490940282018401909552938401838152909284928491908401828280156119555780601f1061192a57610100808354040283529160200191611955565b820191906000526020600020905b81548152906001019060200180831161193857829003601f168201915b50505050508152602001600182018054600181600116156101000203166002900480601f0160208091040260200160405190810160405280929190818152602001828054600181600116156101000203166002900480156119f75780601f106119cc576101008083540402835291602001916119f7565b820191906000526020600020905b8154815290600101906020018083116119da57829003601f168201915b505050918352505060028281015467ffffffffffffffff811660208085019190915268010000000000000000909104600160a060020a031660408085019190915260038501805482516101006001831615026000190190911694909404601f810184900484028501840190925281845260609094019391830182828015611abf5780601f10611a9457610100808354040283529160200191611abf565b820191906000526020600020905b815481529060010190602001808311611aa257829003601f168201915b505050918352505060048201805460408051602060026001851615610100026000190190941693909304601f8101849004840282018401909252818152938201939291830182828015611b535780601f10611b2857610100808354040283529160200191611b53565b820191906000526020600020905b815481529060010190602001808311611b3657829003601f168201915b5050505050815260200160058201805480602002602001604051908101604052809291908181526020018280548015611bab57602002820191906000526020600020905b815481526020019060010190808311611b97575b5050505050815260200160068201805480602002602001604051908101604052809291908181526020018280548015611c0d57602002820191906000526020600020905b8154600160a060020a03168152600190910190602001808311611bef575b50505050508152505090508060000151816060015182602001518360c001518460e0015185608001518660a00151869650849450839350829250819150809050995099509950995099509950995050505090919293949596565b600054600160a060020a03163314611c7e57600080fd5b611c86614cd7565b600160a060020a03848116600090815260066020908152604091829020825160608101845281549094168452600180820180548551600261010094831615949094026000190190911692909204601f8101859004850283018501909552848252919385840193919291830182828015611d405780601f10611d1557610100808354040283529160200191611d40565b820191906000526020600020905b815481529060010190602001808311611d2357829003601f168201915b5050509183525050600282810180546040805160206001841615610100026000190190931694909404601f81018390048302850183019091528084529381019390830182828015611dd25780601f10611da757610100808354040283529160200191611dd2565b820191906000526020600020905b815481529060010190602001808311611db557829003601f168201915b505050919092525050815191925050600160a060020a031615611df457600080fd5b604051611e00906154ed565b604051809103902083604051602001611e1991906154e1565b604051602081830303815290604052805190602001201415611e3a57600080fd5b60408051606081018252600160a060020a038681168083526020808401888152848601889052600092835260068252949091208351815473ffffffffffffffffffffffffffffffffffffffff19169316929092178255925180519293919261103e9260018501920190614c59565b6000606080611eb5614cd7565b3360009081526007602090815260409182902082516060810184528154600160a060020a03168152600180830180548651600261010094831615949094026000190190911692909204601f8101869004860283018601909652858252919492938581019391929190830182828015611f6e5780601f10611f4357610100808354040283529160200191611f6e565b820191906000526020600020905b815481529060010190602001808311611f5157829003601f168201915b5050505050815260200160038201805480602002602001604051908101604052809291908181526020018280548015611fd057602002820191906000526020600020905b8154600160a060020a03168152600190910190602001808311611fb2575b50505091909252505081516020830151604090930151909792965094509092505050565b600160a060020a0384166000908152600160205260409020612014614c12565b600160a060020a03868116600090815260096020908152604091829020825160a081018452815494851681527401000000000000000000000000000000000000000090940467ffffffffffffffff1684830152600180820180548551600261010094831615949094026000190190911692909204601f810185900485028301850186528083529294860193919290918301828280156120f45780601f106120c9576101008083540402835291602001916120f4565b820191906000526020600020905b8154815290600101906020018083116120d757829003601f168201915b5050509183525050600282810180546040805160206001841615610100026000190190931694909404601f810183900483028501830190915280845293810193908301828280156121865780601f1061215b57610100808354040283529160200191612186565b820191906000526020600020905b81548152906001019060200180831161216957829003601f168201915b50505091835250506003919091015462ffffff166020909101526040519091506121af906154ed565b6040518091039020856040516020016121c891906154e1565b6040516020818303038152906040528051906020012014156121e957600080fd5b6001820154600160a060020a03161561220157600080fd5b6000816020015167ffffffffffffffff161161221c57600080fd5b6040518060c0016040528086815260200187600160a060020a03168152602001826020015167ffffffffffffffff1681526020018581526020018481526020016000604051908082528060200260200182016040528015612287578160200160208202803883390190505b509052600160a060020a03871660009081526001602090815260409091208251805191926122ba92849290910190614c59565b50602082810151600183018054604086015167ffffffffffffffff1674010000000000000000000000000000000000000000027fffffffff0000000000000000ffffffffffffffffffffffffffffffffffffffff600160a060020a0390941673ffffffffffffffffffffffffffffffffffffffff199092169190911792909216919091179055606083015180516123579260028501920190614c59565b5060808201518051612373916003840191602090910190614c59565b5060a0820151805161238f916004840191602090910190614d01565b509050507fdd0aa1d3beead09f31cc046643e0d63829e7c7f43e532c2523d978bc9c3bfb33866040516123c291906155ee565b60405180910390a1505050505050565b336123db614b71565b600160a060020a03821660009081526002602081815260409283902083518154610120601f6000196001841615610100908102919091019093169690960495860185900490940282018401909552938401838152909284928491908401828280156124875780601f1061245c57610100808354040283529160200191612487565b820191906000526020600020905b81548152906001019060200180831161246a57829003601f168201915b50505050508152602001600182018054600181600116156101000203166002900480601f0160208091040260200160405190810160405280929190818152602001828054600181600116156101000203166002900480156125295780601f106124fe57610100808354040283529160200191612529565b820191906000526020600020905b81548152906001019060200180831161250c57829003601f168201915b505050918352505060028281015467ffffffffffffffff811660208085019190915268010000000000000000909104600160a060020a031660408085019190915260038501805482516101006001831615026000190190911694909404601f8101849004840285018401909252818452606090940193918301828280156125f15780601f106125c6576101008083540402835291602001916125f1565b820191906000526020600020905b8154815290600101906020018083116125d457829003601f168201915b505050918352505060048201805460408051602060026001851615610100026000190190941693909304601f81018490048402820184019092528181529382019392918301828280156126855780601f1061265a57610100808354040283529160200191612685565b820191906000526020600020905b81548152906001019060200180831161266857829003601f168201915b50505050508152602001600582018054806020026020016040519081016040528092919081815260200182805480156126dd57602002820191906000526020600020905b8154815260200190600101908083116126c9575b505050505081526020016006820180548060200260200160405190810160405280929190818152602001828054801561273f57602002820191906000526020600020905b8154600160a060020a03168152600190910190602001808311612721575b50505050508152505090506000600160a060020a03168160600151600160a060020a03161161276d57600080fd5b336000908152600360209081526040808320600160a060020a038716845290915290205461ffff1661279e57600080fd5b336000818152600360209081526040808320600160a060020a038816808552908352818420805461ffff19169055938352600282528083209383526001909152812060068301549091805b8261ffff168161ffff1610156128415787600160a060020a0316856006018261ffff168154811061281657fe5b600091825260209091200154600160a060020a0316141561283957809150612841565b6001016127e9565b505b6001820361ffff168161ffff1610156128d657836006018160010161ffff168154811061286c57fe5b600091825260209091200154600685018054600160a060020a039092169161ffff841690811061289857fe5b6000918252602090912001805473ffffffffffffffffffffffffffffffffffffffff1916600160a060020a0392909216919091179055600101612843565b836006018054806128e357fe5b6000828152602081208201600019908101805473ffffffffffffffffffffffffffffffffffffffff19169055909101909155600484015492509050805b8261ffff168161ffff1610156129785733600160a060020a0316846004018261ffff168154811061294d57fe5b600091825260209091200154600160a060020a0316141561297057809150612978565b600101612920565b505b6001820361ffff168161ffff161015612a0d57826004018160010161ffff16815481106129a357fe5b600091825260209091200154600484018054600160a060020a039092169161ffff84169081106129cf57fe5b6000918252602090912001805473ffffffffffffffffffffffffffffffffffffffff1916600160a060020a039290921691909117905560010161297a565b82600401805480612a1a57fe5b6000828152602090208101600019908101805473ffffffffffffffffffffffffffffffffffffffff191690550190556040517f212bcbf580385b870fe82b11fdd99334c16d187419727ccfb2b89aea2f87278590612a7d90339086908b90615567565b60405180910390a150505050505050565b600054600160a060020a03163314612aa557600080fd5b612aad614cd7565b600160a060020a03848116600090815260066020908152604091829020825160608101845281549094168452600180820180548551600261010094831615949094026000190190911692909204601f8101859004850283018501909552848252919385840193919291830182828015612b675780601f10612b3c57610100808354040283529160200191612b67565b820191906000526020600020905b815481529060010190602001808311612b4a57829003601f168201915b5050509183525050600282810180546040805160206001841615610100026000190190931694909404601f81018390048302850183019091528084529381019390830182828015612bf95780601f10612bce57610100808354040283529160200191612bf9565b820191906000526020600020905b815481529060010190602001808311612bdc57829003601f168201915b505050919092525050815191925050600160a060020a031615611e3a57600080fd5b600054600160a060020a03163314612c3257600080fd5b612c3a614cd7565b600160a060020a03838116600090815260076020908152604091829020825160608101845281549094168452600180820180548551600261010094831615949094026000190190911692909204601f8101859004850283018501909552848252919385840193919291830182828015612cf45780601f10612cc957610100808354040283529160200191612cf4565b820191906000526020600020905b815481529060010190602001808311612cd757829003601f168201915b5050505050815260200160038201805480602002602001604051908101604052809291908181526020018280548015612d5657602002820191906000526020600020905b8154600160a060020a03168152600190910190602001808311612d38575b505050919092525050815191925050600160a060020a031615612d7857600080fd5b60408051606081018252600160a060020a0385811680835260208084018781528551600080825281840188528688019190915292835260078252949091208351815473ffffffffffffffffffffffffffffffffffffffff191693169290921782559251805192939192612df19260018501920190614c59565b50604082015180516114fb916003840191602090910190614d01565b600160a060020a038083166000908152600760209081526040808320938516835260028401909152902054600160ff90911610612e4957600080fd5b6003810180546001810180835560009283526020808420909201805473ffffffffffffffffffffffffffffffffffffffff1916600160a060020a03969096169586179055938252600290920190915260409020805460ff191660ff90921691909117905550565b336000908152600260205260409020612ec7614c12565b33600090815260086020908152604091829020825160a0810184528154600160a060020a038116825274010000000000000000000000000000000000000000900467ffffffffffffffff1681840152600180830180548651600261010094831615949094026000190190911692909204601f81018690048602830186018752808352929593949386019391929091830182828015612fa65780601f10612f7b57610100808354040283529160200191612fa6565b820191906000526020600020905b815481529060010190602001808311612f8957829003601f168201915b5050509183525050600282810180546040805160206001841615610100026000190190931694909404601f810183900483028501830190915280845293810193908301828280156130385780601f1061300d57610100808354040283529160200191613038565b820191906000526020600020905b81548152906001019060200180831161301b57829003601f168201915b50505091835250506003919091015462ffffff166020909101526002830154909150680100000000000000009004600160a060020a03161561307957600080fd5b6000816020015167ffffffffffffffff161161309457600080fd5b60405180610100016040528086815260200182606001518152602001826020015167ffffffffffffffff16815260200133600160a060020a03168152602001848152602001858152602001600060405190808252806020026020018201604052801561310a578160200160208202803883390190505b508152602001600060405190808252806020026020018201604052801561313b578160200160208202803883390190505b50905233600090815260026020908152604090912082518051919261316592849290910190614c59565b50602082810151805161317e9260018501920190614c59565b5060408201516002820180546060850151600160a060020a031668010000000000000000027fffffffff0000000000000000000000000000000000000000ffffffffffffffff67ffffffffffffffff90941667ffffffffffffffff19909216919091179290921691909117905560808201518051613206916003840191602090910190614c59565b5060a08201518051613222916004840191602090910190614c59565b5060c0820151805161323e916005840191602090910190614d6f565b5060e0820151805161325a916006840191602090910190614d01565b509050507ff0c358f29581a43889abe78660babebd0ac62878d0ed89571af6c2168bbcda0c3360405161328d9190615506565b60405180910390a15050505050565b6000806132a7614b71565b3360009081526002602081815260409283902083518154610120601f60001960018416156101009081029190910190931696909604958601859004909402820184019095529384018381529092849284919084018282801561334a5780601f1061331f5761010080835404028352916020019161334a565b820191906000526020600020905b81548152906001019060200180831161332d57829003601f168201915b50505050508152602001600182018054600181600116156101000203166002900480601f0160208091040260200160405190810160405280929190818152602001828054600181600116156101000203166002900480156133ec5780601f106133c1576101008083540402835291602001916133ec565b820191906000526020600020905b8154815290600101906020018083116133cf57829003601f168201915b505050918352505060028281015467ffffffffffffffff811660208085019190915268010000000000000000909104600160a060020a031660408085019190915260038501805482516101006001831615026000190190911694909404601f8101849004840285018401909252818452606090940193918301828280156134b45780601f10613489576101008083540402835291602001916134b4565b820191906000526020600020905b81548152906001019060200180831161349757829003601f168201915b505050918352505060048201805460408051602060026001851615610100026000190190941693909304601f81018490048402820184019092528181529382019392918301828280156135485780601f1061351d57610100808354040283529160200191613548565b820191906000526020600020905b81548152906001019060200180831161352b57829003601f168201915b50505050508152602001600582018054806020026020016040519081016040528092919081815260200182805480156135a057602002820191906000526020600020905b81548152602001906001019080831161358c575b505050505081526020016006820180548060200260200160405190810160405280929190818152602001828054801561360257602002820191906000526020600020905b8154600160a060020a031681526001909101906020018083116135e4575b5050505050815250509050613615614c12565b33600090815260086020908152604091829020825160a0810184528154600160a060020a038116825274010000000000000000000000000000000000000000900467ffffffffffffffff1681840152600180830180548651600261010094831615949094026000190190911692909204601f810186900486028301860187528083529295939493860193919290918301828280156136f45780601f106136c9576101008083540402835291602001916136f4565b820191906000526020600020905b8154815290600101906020018083116136d757829003601f168201915b5050509183525050600282810180546040805160206001841615610100026000190190931694909404601f810183900483028501830190915280845293810193908301828280156137865780601f1061375b57610100808354040283529160200191613786565b820191906000526020600020905b81548152906001019060200180831161376957829003601f168201915b50505091835250506003919091015462ffffff1660209182015281015190915067ffffffffffffffff868116911614156137ca5750606001516001925090506137d6565b50606001516000925090505b915091565b606060006060806060336137ed614bc9565b600160a060020a0382166000908152600160208181526040928390208351815460029481161561010002600019011693909304601f8101839004909202830160e090810190945260c0830182815292939092849290918491908401828280156138975780601f1061386c57610100808354040283529160200191613897565b820191906000526020600020905b81548152906001019060200180831161387a57829003601f168201915b5050509183525050600182810154600160a060020a0381166020808501919091527401000000000000000000000000000000000000000090910467ffffffffffffffff166040808501919091526002808601805483516101009682161596909602600019011691909104601f81018490048402850184019092528184526060909401939183018282801561396c5780601f106139415761010080835404028352916020019161396c565b820191906000526020600020905b81548152906001019060200180831161394f57829003601f168201915b505050918352505060038201805460408051602060026001851615610100026000190190941693909304601f8101849004840282018401909252818152938201939291830182828015613a005780601f106139d557610100808354040283529160200191613a00565b820191906000526020600020905b8154815290600101906020018083116139e357829003601f168201915b5050505050815260200160048201805480602002602001604051908101604052809291908181526020018280548015613a6257602002820191906000526020600020905b8154600160a060020a03168152600190910190602001808311613a44575b50505050508152505090506000600160a060020a03168160200151600160a060020a031611613a9057600080fd5b613a98614bc9565b336000908152600160208181526040928390208351815460029481161561010002600019011693909304601f8101839004909202830160e090810190945260c083018281529293909284929091849190840182828015613b395780601f10613b0e57610100808354040283529160200191613b39565b820191906000526020600020905b815481529060010190602001808311613b1c57829003601f168201915b5050509183525050600182810154600160a060020a0381166020808501919091527401000000000000000000000000000000000000000090910467ffffffffffffffff166040808501919091526002808601805483516101009682161596909602600019011691909104601f810184900484028501840190925281845260609094019391830182828015613c0e5780601f10613be357610100808354040283529160200191613c0e565b820191906000526020600020905b815481529060010190602001808311613bf157829003601f168201915b505050918352505060038201805460408051602060026001851615610100026000190190941693909304601f8101849004840282018401909252818152938201939291830182828015613ca25780601f10613c7757610100808354040283529160200191613ca2565b820191906000526020600020905b815481529060010190602001808311613c8557829003601f168201915b5050505050815260200160048201805480602002602001604051908101604052809291908181526020018280548015613d0457602002820191906000526020600020905b8154600160a060020a03168152600190910190602001808311613ce6575b5050509190925250508151602083015160a08401516060850151608090950151929d919c509a50929850965090945050505050565b613d41614c12565b600160a060020a03868116600090815260086020908152604091829020825160a081018452815494851681527401000000000000000000000000000000000000000090940467ffffffffffffffff1684830152600180820180548551600261010094831615949094026000190190911692909204601f81018590048502830185018652808352929486019391929091830182828015613e215780601f10613df657610100808354040283529160200191613e21565b820191906000526020600020905b815481529060010190602001808311613e0457829003601f168201915b5050509183525050600282810180546040805160206001841615610100026000190190931694909404601f81018390048302850183019091528084529381019390830182828015613eb35780601f10613e8857610100808354040283529160200191613eb3565b820191906000526020600020905b815481529060010190602001808311613e9657829003601f168201915b50505091835250506003919091015462ffffff1660209182015281015190915067ffffffffffffffff1615613ee757600080fd5b6040805160a081018252600160a060020a0388811680835267ffffffffffffffff86811660208086019182528587018c8152606087018c905262ffffff8b1660808801526000948552600882529690932085518154925173ffffffffffffffffffffffffffffffffffffffff199093169516949094177fffffffff0000000000000000ffffffffffffffffffffffffffffffffffffffff167401000000000000000000000000000000000000000091909216021782559251805192939192610f869260018501920190614c59565b6000606080613fc2614cd7565b3360009081526006602090815260409182902082516060810184528154600160a060020a03168152600180830180548651600261010094831615949094026000190190911692909204601f810186900486028301860190965285825291949293858101939192919083018282801561407b5780601f106140505761010080835404028352916020019161407b565b820191906000526020600020905b81548152906001019060200180831161405e57829003601f168201915b5050509183525050600282810180546040805160206001841615610100026000190190931694909404601f81018390048302850183019091528084529381019390830182828015611fd05780601f106140e257610100808354040283529160200191611fd0565b820191906000526020600020905b8154815290600101906020018083116140f05750505091909252505081516020830151604090930151909792965094509092505050565b600080614132614bc9565b336000908152600160208181526040928390208351815460029481161561010002600019011693909304601f8101839004909202830160e090810190945260c0830182815292939092849290918491908401828280156141d35780601f106141a8576101008083540402835291602001916141d3565b820191906000526020600020905b8154815290600101906020018083116141b657829003601f168201915b5050509183525050600182810154600160a060020a0381166020808501919091527401000000000000000000000000000000000000000090910467ffffffffffffffff166040808501919091526002808601805483516101009682161596909602600019011691909104601f8101849004840285018401909252818452606090940193918301828280156142a85780601f1061427d576101008083540402835291602001916142a8565b820191906000526020600020905b81548152906001019060200180831161428b57829003601f168201915b505050918352505060038201805460408051602060026001851615610100026000190190941693909304601f810184900484028201840190925281815293820193929183018282801561433c5780601f106143115761010080835404028352916020019161433c565b820191906000526020600020905b81548152906001019060200180831161431f57829003601f168201915b505050505081526020016004820180548060200260200160405190810160405280929190818152602001828054801561439e57602002820191906000526020600020905b8154600160a060020a03168152600190910190602001808311614380575b50505050508152505090506143b1614c12565b33600090815260096020908152604091829020825160a0810184528154600160a060020a038116825274010000000000000000000000000000000000000000900467ffffffffffffffff1681840152600180830180548651600261010094831615949094026000190190911692909204601f810186900486028301860187528083529295939493860193919290918301828280156144905780601f1061446557610100808354040283529160200191614490565b820191906000526020600020905b81548152906001019060200180831161447357829003601f168201915b5050509183525050600282810180546040805160206001841615610100026000190190931694909404601f810183900483028501830190915280845293810193908301828280156145225780601f106144f757610100808354040283529160200191614522565b820191906000526020600020905b81548152906001019060200180831161450557829003601f168201915b50505091835250506003919091015462ffffff1660209182015281015190915067ffffffffffffffff868116911614156145665750602001516001925090506137d6565b50602001516000925090506137d6565b60008054600160a060020a0316331461458e57600080fd5b50600054600160a060020a03165b90565b606080600060606145ae614b71565b600160a060020a03861660009081526002602081815260409283902083518154610120601f60001960018416156101009081029190910190931696909604958601859004909402820184019095529384018381529092849284919084018282801561465a5780601f1061462f5761010080835404028352916020019161465a565b820191906000526020600020905b81548152906001019060200180831161463d57829003601f168201915b50505050508152602001600182018054600181600116156101000203166002900480601f0160208091040260200160405190810160405280929190818152602001828054600181600116156101000203166002900480156146fc5780601f106146d1576101008083540402835291602001916146fc565b820191906000526020600020905b8154815290600101906020018083116146df57829003601f168201915b505050918352505060028281015467ffffffffffffffff811660208085019190915268010000000000000000909104600160a060020a031660408085019190915260038501805482516101006001831615026000190190911694909404601f8101849004840285018401909252818452606090940193918301828280156147c45780601f10614799576101008083540402835291602001916147c4565b820191906000526020600020905b8154815290600101906020018083116147a757829003601f168201915b505050918352505060048201805460408051602060026001851615610100026000190190941693909304601f81018490048402820184019092528181529382019392918301828280156148585780601f1061482d57610100808354040283529160200191614858565b820191906000526020600020905b81548152906001019060200180831161483b57829003601f168201915b50505050508152602001600582018054806020026020016040519081016040528092919081815260200182805480156148b057602002820191906000526020600020905b81548152602001906001019080831161489c575b505050505081526020016006820180548060200260200160405190810160405280929190818152602001828054801561491257602002820191906000526020600020905b8154600160a060020a031681526001909101906020018083116148f4575b50505091909252505081516020808401516060850151600160a060020a038c166000908152600584526040808220805482518188028101880190935280835298995095979396509194939192849290919084015b82821015614b5b5760008481526020908190206040805160038602909201805460026001821615610100026000190190911604601f8101859004909402830160809081019092526060830184815292939092849290918491840182828015614a0f5780601f106149e457610100808354040283529160200191614a0f565b820191906000526020600020905b8154815290600101906020018083116149f257829003601f168201915b50505050508152602001600182018054600181600116156101000203166002900480601f016020809104026020016040519081016040528092919081815260200182805460018160011615610100020316600290048015614ab15780601f10614a8657610100808354040283529160200191614ab1565b820191906000526020600020905b815481529060010190602001808311614a9457829003601f168201915b5050509183525050600282810180546040805160206001841615610100026000190190931694909404601f81018390048302850183019091528084529381019390830182828015614b435780601f10614b1857610100808354040283529160200191614b43565b820191906000526020600020905b815481529060010190602001808311614b2657829003601f168201915b50505050508152505081526020019060010190614966565b5050505090509450945094509450509193509193565b6040518061010001604052806060815260200160608152602001600067ffffffffffffffff1681526020016000600160a060020a03168152602001606081526020016060815260200160608152602001606081525090565b6040518060c00160405280606081526020016000600160a060020a03168152602001600067ffffffffffffffff1681526020016060815260200160608152602001606081525090565b6040518060a001604052806000600160a060020a03168152602001600067ffffffffffffffff1681526020016060815260200160608152602001600062ffffff1681525090565b828054600181600116156101000203166002900490600052602060002090601f016020900481019282601f10614c9a57805160ff1916838001178555614cc7565b82800160010185558215614cc7579182015b82811115614cc7578251825591602001919060010190614cac565b50614cd3929150614da9565b5090565b60405180606001604052806000600160a060020a0316815260200160608152602001606081525090565b828054828255906000526020600020908101928215614d63579160200282015b82811115614d63578251825473ffffffffffffffffffffffffffffffffffffffff1916600160a060020a03909116178255602090920191600190910190614d21565b50614cd3929150614dc3565b828054828255906000526020600020908101928215614cc75791602002820182811115614cc7578251825591602001919060010190614cac565b61459c91905b80821115614cd35760008155600101614daf565b61459c91905b80821115614cd357805473ffffffffffffffffffffffffffffffffffffffff19168155600101614dc9565b8035614dff81615878565b92915050565b600082601f830112614e1657600080fd5b8135614e29614e24826157a4565b61577d565b91508082526020830160208301858383011115614e4557600080fd5b614e50838284615832565b50505092915050565b8035614dff8161588f565b8035614dff81615898565b600060208284031215614e8157600080fd5b6000614e8d8484614df4565b949350505050565b60008060408385031215614ea857600080fd5b6000614eb48585614df4565b9250506020614ec585828601614df4565b9150509250929050565b60008060408385031215614ee257600080fd5b6000614eee8585614df4565b925050602083013567ffffffffffffffff811115614f0b57600080fd5b614ec585828601614e05565b600080600060608486031215614f2c57600080fd5b6000614f388686614df4565b935050602084013567ffffffffffffffff811115614f5557600080fd5b614f6186828701614e05565b925050604084013567ffffffffffffffff811115614f7e57600080fd5b614f8a86828701614e05565b9150509250925092565b60008060008060808587031215614faa57600080fd5b6000614fb68787614df4565b945050602085013567ffffffffffffffff811115614fd357600080fd5b614fdf87828801614e05565b935050604085013567ffffffffffffffff811115614ffc57600080fd5b61500887828801614e05565b925050606085013567ffffffffffffffff81111561502557600080fd5b61503187828801614e05565b91505092959194509250565b600080600080600060a0868803121561505557600080fd5b60006150618888614df4565b955050602086013567ffffffffffffffff81111561507e57600080fd5b61508a88828901614e05565b945050604086013567ffffffffffffffff8111156150a757600080fd5b6150b388828901614e05565b93505060606150c488828901614e59565b92505060806150d588828901614e64565b9150509295509295909350565b6000806000606084860312156150f757600080fd5b833567ffffffffffffffff81111561510e57600080fd5b614f3886828701614e05565b60006020828403121561512c57600080fd5b6000614e8d8484614e64565b6000615144838361517a565b505060200190565b600061514483836152a1565b6000615164838361548c565b9392505050565b61517481615821565b82525050565b615174816157f0565b600061518e826157de565b61519881856157e2565b93506151a3836157cc565b8060005b838110156151d15781516151bb8882615138565b97506151c6836157cc565b9250506001016151a7565b509495945050505050565b60006151e7826157de565b6151f181856157e2565b93506151fc836157cc565b8060005b838110156151d1578151615214888261514c565b975061521f836157cc565b925050600101615200565b6000615235826157de565b61523f81856157e2565b935083602082028501615251856157cc565b8060005b8581101561528b578484038952815161526e8582615158565b9450615279836157cc565b60209a909a0199925050600101615255565b5091979650505050505050565b615174816157fb565b6151748161459c565b60006152b5826157de565b6152bf81856157e2565b93506152cf81856020860161583e565b6152d88161586e565b9093019392505050565b60006152ed826157de565b6152f781856157eb565b935061530781856020860161583e565b9290920192915050565b60008154600181166000811461532e576001811461535457615393565b607f600283041661533f81876157e2565b60ff1984168152955050602085019250615393565b6002820461536281876157e2565b955061536d856157d2565b60005b8281101561538c57815488820152600190910190602001615370565b8701945050505b505092915050565b60006153a86014836157e2565b7f5265676973746572656420617320446f63746f72000000000000000000000000815260200192915050565b60006153e16015836157e2565b7f526567697374657265642061732050617469656e740000000000000000000000815260200192915050565b600061541a6018836157e2565b7f4772616e7465642061636365737320746f20646f63746f720000000000000000815260200192915050565b60006154536018836157e2565b7f5265766f6b656420616363657373206f6620646f63746f720000000000000000815260200192915050565b6000614dff6000836157eb565b80516060808452600091908401906154a482826152aa565b915050602083015184820360208601526154be82826152aa565b915050604083015184820360408601526154d882826152aa565b95945050505050565b600061516482846152e2565b6000614dff8261547f565b60208101614dff828461517a565b60408101615514828461516b565b8181036020830152615164816153d4565b60808101615533828661516b565b81810360208301526155448161540d565b905081810360408301526155588185615311565b9050614e8d606083018461517a565b60808101615575828661516b565b818103602083015261554481615446565b60608101615594828661517a565b81810360208301526155a681856152aa565b905081810360408301526154d88184615183565b606081016155c8828661517a565b81810360208301526155da81856152aa565b905081810360408301526154d881846152aa565b604081016155fc828461517a565b81810360208301526151648161539b565b60208082528101615164818461522a565b6040810161562c8285615298565b615164602083018461517a565b60a0808252810161564a81886152aa565b9050615659602083018761517a565b818103604083015261566b8186615183565b9050818103606083015261567f81856152aa565b9050818103608083015261569381846152aa565b979650505050505050565b60e080825281016156af818a6152aa565b90506156be602083018961517a565b81810360408301526156d081886152aa565b905081810360608301526156e481876151dc565b905081810360808301526156f88186615183565b905081810360a083015261570c81856152aa565b905081810360c083015261572081846152aa565b9998505050505050505050565b6080808252810161573e81876152aa565b9050818103602083015261575281866152aa565b9050615761604083018561517a565b8181036060830152615773818461522a565b9695505050505050565b60405181810167ffffffffffffffff8111828210171561579c57600080fd5b604052919050565b600067ffffffffffffffff8211156157bb57600080fd5b506020601f91909101601f19160190565b60200190565b60009081526020902090565b5190565b90815260200190565b919050565b6000614dff82615800565b151590565b600160a060020a031690565b62ffffff1690565b67ffffffffffffffff1690565b6000614dff826000614dff826157f0565b82818337506000910152565b60005b83811015615859578181015183820152602001615841565b83811115615868576000848401525b50505050565b601f01601f191690565b615881816157f0565b811461588c57600080fd5b50565b6158818161580c565b6158818161581456fea365627a7a723158200d9ba0879013d3bfa51f3f7f5cd24c97bbbce498fe2a099daee4767875813a976c6578706572696d656e74616cf564736f6c63430005110040",
  "source": "pragma solidity >=0.4.21 <0.7.0;\npragma experimental ABIEncoderV2;\n\n\ncontract optimized_healthCare {\n\n  address private owner;\n  mapping (address => doctor) private doctors;\n  \n  mapping (address => patient) private patients; //mapping patients to their addresses\n  mapping (address => mapping (address => uint16)) private patientToDoctor; //patients and list of doctors allowed access to\n  mapping (address => mapping (bytes32 => uint16)) private patientToFile; //files mapped to patients\n  mapping (address => files[]) private patientFiles;\n  mapping (address => hospital) private hospitals;\n  mapping (address => insuranceComp) insuranceCompanies;\n  // mapping (address => doctorAddedFiles[]) private doctorAddedPatientFiles;\n  // mapping (address => doctorOfferedConsultation[]) private doctorOfferedConsultationList;\n  mapping (address => adhaar) patient_adhaar_info;\n  mapping (address => adhaar) doctor_adhaar_info;\n\n\n  struct adhaar{\n    address id;\n    uint64 adhaar_number;\n    string name;\n    string DOB;\n    uint24 pincode;\n  }\n\n  //structure of patient file\n  struct files{\n      string file_name;\n      string file_type;\n      string file_hash;\n  }\n  \n  //structure of hospital\n  struct hospital{\n    address id;  \n    string name;\n    string location;\n  }\n  \n  //structure of Insurance companies\n  struct insuranceComp{\n    address id;  \n    string name;\n    mapping (address => uint8) regPatientsMapping;\n    address[] regPatients;\n  }\n  \n\n  //structure of patient info\n  struct patient {\n    string name;\n    string DOB;\n    uint64 adhaar_number;\n    address id;\n    string gender;\n    string contact_info;\n\n    bytes32[] files;// hashes of file that belong to this user for display purpose\n    address[] doctor_list;\n  }\n  \n \n  //structure of doctor info\n  struct doctor {\n      string name;\n      address id;\n      uint64 adhaar_number;\n      string contact;\n      string specialization;\n      address[] patient_list;\n  }\n\n  //setting the owner\n  constructor() public {\n    owner = 0x0aa5F9f476FCd111d6D656051306Ba678c1Cb5dE;\n  }\n  \n  //verify doctor \n  modifier checkDoctor(address id) {\n    doctor memory d = doctors[id];\n    require(d.id > address(0x0));//check if doctor exist\n    _;\n  }\n  \n  //verify patient\n  modifier checkPatient(address id) {\n    patient memory p = patients[id];\n    require(p.id > address(0x0));//check if patient exist\n    _;\n  }\n\n \n  //owner verification modifier\n  modifier onlyOwner() {\n    require(msg.sender == owner);\n    _;\n  }\n   \n\n\n  function hospitalSignUp(address _id, string memory _name, string memory _location ) public onlyOwner() {\n    \n    hospital memory h= hospitals[_id];\n    require(!(h.id > address(0x0)));\n    require(keccak256(abi.encodePacked(_name)) != keccak256(\"\"));\n    hospitals[_id] = hospital({id:_id, name:_name, location: _location});\n  }\n\n  //Event to emit when new patient registers\n  event patientSignUp( address _patient, string message);\n\n  function signupPatient(string memory _name, string memory _contact, string memory _gender) public {\n\n    //search for patient on blockchain by address \n    patient storage p = patients[msg.sender];\n    adhaar memory a = patient_adhaar_info[msg.sender];\n    //Check if the patient already exists by address\n    require(!(p.id > address(0x0)));\n    //Add patient to blockchain\n    require(a.adhaar_number > 0);\n\n    patients[msg.sender] = patient({name:_name, DOB: a.DOB, id:msg.sender, adhaar_number: a.adhaar_number, gender:_gender, contact_info:_contact, files:new bytes32[](0), doctor_list:new address[](0)});\n    \n\n    emit patientSignUp( msg.sender, \"Registered as Patient\");\n  }\n  \n\n  //Event to emit when new doctor registers\n  event doctorSignUp(address _doctor, string message);\n\n  function signupDoctor(address _id, string memory _name, string memory _contact, string memory _specialization) public {\n\n      //search for doctor on blockchain\n      doctor storage d = doctors[_id];\n      adhaar memory a = doctor_adhaar_info[_id];\n      //check name of doctor\n      require(keccak256(abi.encodePacked(_name)) != keccak256(\"\"));\n      //check if doctor already exists\n      require(!(d.id > address(0x0)));\n\n      require(a.adhaar_number > 0);\n      //Add the doctor to blockchain\n      doctors[_id] = doctor({name:_name, id:_id, contact:_contact, adhaar_number: a.adhaar_number, specialization: _specialization, patient_list:new address[](0)});\n     \n      emit doctorSignUp(_id, \"Registered as Doctor\");\n  }\n\n\n  //Event to emit when patient grants access to doctor\n  event grantDoctorAccess( address patient_address, string message, string _doctor, address doctor_address);\n  \n  function grantAccessToDoctor(address doctor_id) public checkPatient(msg.sender) checkDoctor(doctor_id) {\n      \n      patient storage p = patients[msg.sender];\n      doctor storage d = doctors[doctor_id];\n      require(patientToDoctor[msg.sender][doctor_id] < 1);// this means doctor already been access\n      \n      uint16 pos = (uint16)(p.doctor_list.push(doctor_id));// new length of array\n      \n      patientToDoctor[msg.sender][doctor_id] = pos;\n      d.patient_list.push(msg.sender);\n\n   \n      \n      emit grantDoctorAccess( msg.sender , \"Granted access to doctor\", d.name , doctor_id);\n  }\n\n  //Event to emit when patient revokes a doctor's access\n  event revokeDoctorAccess(address patient_address, string message, string _doctor, address doctor_address);\n\n  function revokeAccessFromDoctor(address doctor_id) public checkPatient(msg.sender){\n    require(patientToDoctor[msg.sender][doctor_id] > 0);\n    patientToDoctor[msg.sender][doctor_id] = 0;\n\n\n    patient storage p = patients[msg.sender];\n    doctor storage d = doctors[doctor_id];\n\n    uint16 pdlength= (uint16)(p.doctor_list.length);\n    uint16 pos=0;\n\n    for (uint16 i = 0; i < pdlength; i++) {\n      if(p.doctor_list[i] == doctor_id)\n      {\n        pos=i;\n        break;\n      }\n    }\n\n    for(;pos<pdlength-1;pos++)\n    {\n      p.doctor_list[pos]= p.doctor_list[pos+1];\n    }\n\n    p.doctor_list.pop();\n\n    pdlength= (uint16)(d.patient_list.length);\n    pos=0;\n\n    for (uint16 i = 0; i < pdlength; i++) {\n      if(d.patient_list[i] == msg.sender)\n      {\n        pos=i;\n        break;\n      }\n    }\n\n    for(;pos<pdlength-1;pos++)\n    {\n      d.patient_list[pos]= d.patient_list[pos+1];\n    }\n\n    d.patient_list.pop();\n\n    emit revokeDoctorAccess(msg.sender, \"Revoked access of doctor\", d.name, doctor_id);\n  }\n  \n\n\n  function addUserFiles(string memory _file_name, string memory _file_type,string memory _file_hash) public{\n\n    patientFiles[msg.sender].push(files({file_name:_file_name, file_type:_file_type,file_hash:_file_hash}));\n\n  }\n\n\n  function getUserFiles(address sender)public view returns(files[] memory){\n      return patientFiles[sender];\n  }\n\n\n\n  function getPatientInfo() public view checkPatient(msg.sender) returns(string memory,address, string memory, bytes32[] memory , address[] memory, string memory, string memory) {\n      \n    patient memory p = patients[msg.sender];\n    return (p.name, p.id, p.DOB, p.files, p.doctor_list, p.gender, p.contact_info );\n  }\n\n\n\n  function getDoctorInfo() public view checkDoctor(msg.sender) returns(string memory, address, address[] memory, string memory, string memory) {\n      doctor memory d = doctors[msg.sender];\n\n      return (d.name, d.id, d.patient_list, d.contact, d.specialization);\n  }\n  \n  function checkDoctorInfo(uint64 _adhaar_number) public view returns(bool, address) {\n    \n    doctor memory d = doctors[msg.sender];\n    adhaar memory a = doctor_adhaar_info[msg.sender];\n    if (a.adhaar_number == _adhaar_number){\n      return (true, d.id);\n    }\n\n    else \n      return (false, d.id);\n\n  }\n\n  function checkPatientInfo(uint64 _adhaar_number) public view returns(bool, address) {\n    patient memory p = patients[msg.sender];\n    adhaar memory a = patient_adhaar_info[msg.sender];\n    if (a.adhaar_number == _adhaar_number){\n      return (true,p.id);\n    }\n\n    else \n      return (false,p.id);\n\n  }\n  \n  \n  function getPatientInfoForDoctor(address pat) public view returns(string memory, string memory, address, files[] memory){\n      patient memory p = patients[pat];\n      return (p.name, p.DOB, p.id, patientFiles[pat]);\n    }\n\n  function getHospitalInfo() public view returns(address, string memory, string memory)\n  {\n    hospital memory h = hospitals[msg.sender];\n    return (h.id, h.name, h.location);\n  }\n\n  function getOwnerInfo() public view  onlyOwner() returns(address)\n  {\n    return (owner);\n  }\n\n  function hospitalGrantAccess(address _user, address _patient) public checkPatient(_patient)\n  {\n    doctor storage d = doctors[_user];\n    patient storage p = patients[_patient];\n    if(d.id > address(0x0))\n    {\n      require(patientToDoctor[_patient][_user] < 1);// this means doctor already been access\n      \n      uint16 pos = (uint16)(p.doctor_list.push(_user));// new length of array\n      \n      patientToDoctor[_patient][_user] = pos;\n      d.patient_list.push(_patient);    \n    }\n  }\n\n  function addHospital(address _id, string memory _name, string memory _location) public onlyOwner(){\n    hospital memory h = hospitals[_id];\n    require(!(h.id > address(0x0)));\n    hospitals[_id] = hospital({id:_id, name:_name, location:_location});\n  }\n \n  function regInsuranceComp(address _id, string memory _name) public onlyOwner() {\n    insuranceComp memory i= insuranceCompanies[_id];\n    require(!(i.id> address(0x0)));\n    insuranceCompanies[_id] = insuranceComp({id:_id, name:_name, regPatients: new address[](0)});\n  } \n\n  function getInsuranceCompInfo() public view returns(address,string memory, address[] memory){\n    insuranceComp memory i= insuranceCompanies[msg.sender];\n    return(i.id,i.name,i.regPatients);\n  }\n\n  function addPatientToInsuranceComp(address _insuranceComp, address _pat) public{\n    insuranceComp storage i = insuranceCompanies[_insuranceComp];\n    require(i.regPatientsMapping[_pat]<1);\n    uint8 pos=(uint8)(i.regPatients.push(_pat));\n    i.regPatientsMapping[_pat]=pos;\n  }\n\n\n\n  function addDoctorAdhaarInfo(address _doc, string memory _name, string memory _DOB, uint24 _pincode, uint64 _adhaar_number) public {\n    adhaar memory a = doctor_adhaar_info[_doc];\n    require(a.adhaar_number == 0);\n    doctor_adhaar_info[_doc] = adhaar({id:_doc, pincode: _pincode, name: _name, DOB: _DOB, adhaar_number: _adhaar_number});\n  }\n\n  function addPatientAdhaarInfo(address _pat, string memory _name, string memory _DOB, uint24 _pincode, uint64 _adhaar_number) public {\n    adhaar memory a = patient_adhaar_info[_pat];\n    require(a.adhaar_number == 0);\n    patient_adhaar_info[_pat] = adhaar({id:_pat, pincode: _pincode, name: _name, DOB: _DOB, adhaar_number: _adhaar_number});\n  }\n  \n}",
  "sourcePath": "/Users/toshitgurajala/Documents/EHR-using-Blockchain/contracts/optimized_healthCare.sol",
  "compiler": {
    "name": "solc",
    "version": "0.5.17+commit.d19bba13.Emscripten.clang"
  },
  "schemaVersion": "3.4.7",
  "updatedAt": "2022-06-30T03:03:29.022Z",
  "networkType": "ethereum",
  "devdoc": {
    "methods": {}
  },
  "userdoc": {
    "methods": {}
  }
}